{"contracts/CertificateVerifier.sol":{"CertificateVerifier":{"abi":[{"anonymous":false,"inputs":[{"indexed":true,"internalType":"string","name":"hash","type":"string"},{"indexed":true,"internalType":"address","name":"sender","type":"address"}],"name":"HashStored","type":"event"},{"inputs":[{"internalType":"string","name":"_hash","type":"string"}],"name":"storeHash","outputs":[],"stateMutability":"nonpayable","type":"function"},{"inputs":[{"internalType":"string","name":"_hash","type":"string"}],"name":"verifyHash","outputs":[{"internalType":"bool","name":"","type":"bool"}],"stateMutability":"view","type":"function"}],"evm":{"bytecode":{"linkReferences":{},"object":"608060405234801561001057600080fd5b5061021f806100206000396000f3fe608060405234801561001057600080fd5b50600436106100365760003560e01c806371dc61cb1461003b57806386fb281314610050575b600080fd5b61004e610049366004610167565b610077565b005b61006361005e366004610167565b610139565b604051901515815260200160405180910390f35b604081146100c15760405162461bcd60e51b8152602060048201526013602482015272092dcecc2d8d2c840d0c2e6d040d8cadccee8d606b1b604482015260640160405180910390fd5b6001600083836040516100d59291906101d9565b908152604051908190036020018120805492151560ff1990931692909217909155339061010590849084906101d9565b604051908190038120907f86fe26a4c2c4da61049e3786668239929ce2f0465c18b8c655ad4cd126df9ea990600090a35050565b600080838360405161014c9291906101d9565b9081526040519081900360200190205460ff16905092915050565b6000806020838503121561017a57600080fd5b823567ffffffffffffffff8082111561019257600080fd5b818501915085601f8301126101a657600080fd5b8135818111156101b557600080fd5b8660208285010111156101c757600080fd5b60209290920196919550909350505050565b818382376000910190815291905056fea2646970667358221220805a706298e8434e5b3ca75ac8fcca5af14daddfc45fb9d04e3e914b54dd9a0164736f6c63430008180033","opcodes":"PUSH1 0x80 PUSH1 0x40 MSTORE CALLVALUE DUP1 ISZERO PUSH2 0x10 JUMPI PUSH1 0x0 DUP1 REVERT JUMPDEST POP PUSH2 0x21F DUP1 PUSH2 0x20 PUSH1 0x0 CODECOPY PUSH1 0x0 RETURN INVALID PUSH1 0x80 PUSH1 0x40 MSTORE CALLVALUE DUP1 ISZERO PUSH2 0x10 JUMPI PUSH1 0x0 DUP1 REVERT JUMPDEST POP PUSH1 0x4 CALLDATASIZE LT PUSH2 0x36 JUMPI PUSH1 0x0 CALLDATALOAD PUSH1 0xE0 SHR DUP1 PUSH4 0x71DC61CB EQ PUSH2 0x3B JUMPI DUP1 PUSH4 0x86FB2813 EQ PUSH2 0x50 JUMPI JUMPDEST PUSH1 0x0 DUP1 REVERT JUMPDEST PUSH2 0x4E PUSH2 0x49 CALLDATASIZE PUSH1 0x4 PUSH2 0x167 JUMP JUMPDEST PUSH2 0x77 JUMP JUMPDEST STOP JUMPDEST PUSH2 0x63 PUSH2 0x5E CALLDATASIZE PUSH1 0x4 PUSH2 0x167 JUMP JUMPDEST PUSH2 0x139 JUMP JUMPDEST PUSH1 0x40 MLOAD SWAP1 ISZERO ISZERO DUP2 MSTORE PUSH1 0x20 ADD PUSH1 0x40 MLOAD DUP1 SWAP2 SUB SWAP1 RETURN JUMPDEST PUSH1 0x40 DUP2 EQ PUSH2 0xC1 JUMPI PUSH1 0x40 MLOAD PUSH3 0x461BCD PUSH1 0xE5 SHL DUP2 MSTORE PUSH1 0x20 PUSH1 0x4 DUP3 ADD MSTORE PUSH1 0x13 PUSH1 0x24 DUP3 ADD MSTORE PUSH19 0x92DCECC2D8D2C840D0C2E6D040D8CADCCEE8D PUSH1 0x6B SHL PUSH1 0x44 DUP3 ADD MSTORE PUSH1 0x64 ADD PUSH1 0x40 MLOAD DUP1 SWAP2 SUB SWAP1 REVERT JUMPDEST PUSH1 0x1 PUSH1 0x0 DUP4 DUP4 PUSH1 0x40 MLOAD PUSH2 0xD5 SWAP3 SWAP2 SWAP1 PUSH2 0x1D9 JUMP JUMPDEST SWAP1 DUP2 MSTORE PUSH1 0x40 MLOAD SWAP1 DUP2 SWAP1 SUB PUSH1 0x20 ADD DUP2 KECCAK256 DUP1 SLOAD SWAP3 ISZERO ISZERO PUSH1 0xFF NOT SWAP1 SWAP4 AND SWAP3 SWAP1 SWAP3 OR SWAP1 SWAP2 SSTORE CALLER SWAP1 PUSH2 0x105 SWAP1 DUP5 SWAP1 DUP5 SWAP1 PUSH2 0x1D9 JUMP JUMPDEST PUSH1 0x40 MLOAD SWAP1 DUP2 SWAP1 SUB DUP2 KECCAK256 SWAP1 PUSH32 0x86FE26A4C2C4DA61049E3786668239929CE2F0465C18B8C655AD4CD126DF9EA9 SWAP1 PUSH1 0x0 SWAP1 LOG3 POP POP JUMP JUMPDEST PUSH1 0x0 DUP1 DUP4 DUP4 PUSH1 0x40 MLOAD PUSH2 0x14C SWAP3 SWAP2 SWAP1 PUSH2 0x1D9 JUMP JUMPDEST SWAP1 DUP2 MSTORE PUSH1 0x40 MLOAD SWAP1 DUP2 SWAP1 SUB PUSH1 0x20 ADD SWAP1 KECCAK256 SLOAD PUSH1 0xFF AND SWAP1 POP SWAP3 SWAP2 POP POP JUMP JUMPDEST PUSH1 0x0 DUP1 PUSH1 0x20 DUP4 DUP6 SUB SLT ISZERO PUSH2 0x17A JUMPI PUSH1 0x0 DUP1 REVERT JUMPDEST DUP3 CALLDATALOAD PUSH8 0xFFFFFFFFFFFFFFFF DUP1 DUP3 GT ISZERO PUSH2 0x192 JUMPI PUSH1 0x0 DUP1 REVERT JUMPDEST DUP2 DUP6 ADD SWAP2 POP DUP6 PUSH1 0x1F DUP4 ADD SLT PUSH2 0x1A6 JUMPI PUSH1 0x0 DUP1 REVERT JUMPDEST DUP2 CALLDATALOAD DUP2 DUP2 GT ISZERO PUSH2 0x1B5 JUMPI PUSH1 0x0 DUP1 REVERT JUMPDEST DUP7 PUSH1 0x20 DUP3 DUP6 ADD ADD GT ISZERO PUSH2 0x1C7 JUMPI PUSH1 0x0 DUP1 REVERT JUMPDEST PUSH1 0x20 SWAP3 SWAP1 SWAP3 ADD SWAP7 SWAP2 SWAP6 POP SWAP1 SWAP4 POP POP POP POP JUMP JUMPDEST DUP2 DUP4 DUP3 CALLDATACOPY PUSH1 0x0 SWAP2 ADD SWAP1 DUP2 MSTORE SWAP2 SWAP1 POP JUMP INVALID LOG2 PUSH5 0x6970667358 0x22 SLT KECCAK256 DUP1 GAS PUSH17 0x6298E8434E5B3CA75AC8FCCA5AF14DADDF 0xC4 PUSH0 0xB9 0xD0 0x4E RETURNDATACOPY SWAP2 0x4B SLOAD 0xDD SWAP11 ADD PUSH5 0x736F6C6343 STOP ADDMOD XOR STOP CALLER "},"methodIdentifiers":{"storeHash(string)":"71dc61cb","verifyHash(string)":"86fb2813"}}}}}